:0400000054EF00F0C9
:100008004482FACF06F0FBCF07F0E9CF08F0EACF39
:1000180009F0E1CF0AF0E2CF0BF0D9CF0CF0DACF3C
:100028000DF0F3CF0EF0F4CF0FF0F6CF10F0F7CFBE
:1000380011F0F8CF12F0F5CF13F044C014F045C01A
:1000480015F046C016F047C017F0F2BAF2A402D075
:1000580011EC01F017C047F016C046F015C045F086
:1000680014C044F013C0F5FF12C0F8FF11C0F7FF29
:1000780010C0F6FF0FC0F4FF0EC0F3FF0DC0DAFF8B
:100088000CC0D9FF0BC0E2FF0AC0E1FF09C0EAFFBC
:1000980008C0E9FF07C0FBFF06C0FAFF4492110041
:1000A800F1EF01F0000E266E000E256EAED020C0D6
:1000B80018F021C019F0000E1B6E0A0E1A6E9BEC88
:1000C80001F018C023F019C024F020C018F021C096
:1000D80019F0000E1B6E0A0E1A6E59EC01F018C0CA
:1000E80020F019C021F0350E2524D96E000E2620E7
:1000F800DA6E23C0DFFF254A262A000E286E000E7E
:10010800276E79D0350E2724D96E000E2820DA6E96
:10011800220E47D0350E2724D96E000E2820DA6E1D
:10012800BC0E3FD0350E2724D96E000E2820DA6E7B
:10013800AE0E37D0350E2724D96E000E2820DA6E81
:10014800660E2FD0350E2724D96E000E2820DA6EC1
:10015800CE0E27D0350E2724D96E000E2820DA6E51
:10016800DE0E1FD0350E2724D96E000E2820DA6E39
:10017800A20E17D0350E2724D96E000E2820DA6E6D
:10018800FE0E0FD0350E2724D96E000E2820DA6E09
:10019800EE0E07D0350E2724D96E000E2820DA6E11
:1001A800FA0EDF6E26D0350E2724D96E000E2820D1
:1001B800DA6EDF50000AD8B4EDD7010AD8B4A2D756
:1001C800030AD8B4A7D7010AD8B4ACD7070AD8B459
:1001D800B1D7010AD8B4B6D7030AD8B4BBD7010A35
:1001E800D8B4C0D70F0AD8B4C5D7010AD8B4CAD76B
:1001F800D1D7274A282A2550275C2850800A226E02
:100208002650800A2258D8A0CED721BE12002150ED
:1002180003E12004D8A012004AD7F294FC0E026E23
:10022800170E016E79EC02F03A4A3B2AE80E3A5C66
:10023800030E3B58D8A002D0424A432A43BE0AD0F4
:100248000F0E425C270E4358D8A004D0000E436E10
:10025800000E426E899A350E3E24D96E000E3F205C
:10026800DA6EDF50056E0550016E026A0EEC02F080
:10027800300E3E24D96E000E3F20DA6EDF50056E38
:100288000550016E026A0EEC02F0898A3E4A3F2A46
:100298003FBE12003F5004E1040E3E5CD8A012009D
:1002A800000E3F6E000E3E6E1200000E1D6E1BAE5D
:1002B80006D01A6C1B1ED8B01B2A010E1D6E19AE73
:1002C80006D0186C191ED8B0192A010E1D1A000E76
:1002D8001F6E000E1E6E1A501B10D8B41CD0010ED3
:1002E8001C6E04D0D8901A361B361C2A1BAEFAD7BF
:1002F800D8901E361F361A50185C1B501958D8A0B3
:1003080005D01A50185E1B50195A1E80D8901B32FF
:100318001A321C2EEDD71D50D8B404D01E6C1F1EE7
:10032800D8B01F2A1EC018F01FC019F01200000E06
:100338001D6E19AE06D0186C191ED8B0192A010EF8
:100348001D6E1BAE04D01A6C1B1ED8B01B2A1A5087
:100358001B10D8B418D0010E1C6E04D0D8901A36D1
:100368001B361C2A1BAEFAD71A50185C1B5019589A
:10037800D8A004D01A50185E1B50195AD8901B32B6
:100388001A321C2EF1D71D50D8B404D0186C191E7F
:10039800D8B0192A18C018F019C019F0120059EC71
:1003A80002F0FC0E196E170E186E6AEC02F07EEC65
:1003B80002F0F28E42C020F043C021F056EC00F06B
:1003C800110E2A6E3C0E296ECB0EE82EFED7292E72
:1003D800FCD72A2EFAD700F0EDD7C40EF66E040E1D
:1003E800F76E000EF86E00EE2BF010EE0FF009001D
:1003F800F5CFEEFFE550E150FAE100EE3AF00A0ED3
:10040800EE6AE806FDE144904492000EF86E0001A1
:10041800D3EF01F08B90000E046E000E036E04BE45
:1004280006D0045011E1080E035CD8B0120001AEEA
:1004380002D08B8201D08B928B808B90D890013622
:100448000236034A042AEBD71200F00ED76E5F0E6D
:10045800D66ED650D7CF1AF01B6A1AC01BF01A6A8C
:100468001A103C6E1B503D6EF294F28A000E186E04
:10047800000E196E6FEC02F0810ED56E1200000EA0
:10048800896E000E8A6E000E8B6E030E926E380E09
:10049800936EC00E946E000E0F013A6F000E396F06
:1004A800000E386F6168F18E120080EC02F043ECA8
:1004B80002F074EC02F029EC02F0120010010204C0
:0B04C800081001020408FA22BCAE017B
:1004D4001950D76E18C0D6FF120018C040F019C0CA
:1004E40041F01200380ED36ED2BE1200FDD7025076
:1004F400D76E01C0D6FF1200D58E1200D09E120016
:020000040020DA
:08000000FFFFFFFFFFFFFFFF00
:020000040030CA
:0E000000FF321F3CFFBF85FF0FC00FE00F4017
:00000001FF
